{
  "contractName": "Token",
  "abi": [
    {
      "inputs": [],
      "stateMutability": "nonpayable",
      "type": "constructor"
    },
    {
      "anonymous": false,
      "inputs": [
        {
          "indexed": true,
          "internalType": "address",
          "name": "owner",
          "type": "address"
        },
        {
          "indexed": true,
          "internalType": "address",
          "name": "spender",
          "type": "address"
        },
        {
          "indexed": false,
          "internalType": "uint256",
          "name": "value",
          "type": "uint256"
        }
      ],
      "name": "Approval",
      "type": "event"
    },
    {
      "anonymous": false,
      "inputs": [
        {
          "indexed": true,
          "internalType": "address",
          "name": "previousOwner",
          "type": "address"
        },
        {
          "indexed": true,
          "internalType": "address",
          "name": "newOwner",
          "type": "address"
        }
      ],
      "name": "OwnershipTransferred",
      "type": "event"
    },
    {
      "anonymous": false,
      "inputs": [
        {
          "indexed": true,
          "internalType": "address",
          "name": "from",
          "type": "address"
        },
        {
          "indexed": true,
          "internalType": "address",
          "name": "to",
          "type": "address"
        },
        {
          "indexed": false,
          "internalType": "uint256",
          "name": "value",
          "type": "uint256"
        }
      ],
      "name": "Transfer",
      "type": "event"
    },
    {
      "inputs": [],
      "name": "buyTax",
      "outputs": [
        {
          "internalType": "uint256",
          "name": "",
          "type": "uint256"
        }
      ],
      "stateMutability": "view",
      "type": "function"
    },
    {
      "inputs": [],
      "name": "liquidityPairAddress",
      "outputs": [
        {
          "internalType": "address",
          "name": "",
          "type": "address"
        }
      ],
      "stateMutability": "view",
      "type": "function"
    },
    {
      "inputs": [],
      "name": "owner",
      "outputs": [
        {
          "internalType": "address",
          "name": "",
          "type": "address"
        }
      ],
      "stateMutability": "view",
      "type": "function"
    },
    {
      "inputs": [],
      "name": "renounceOwnership",
      "outputs": [],
      "stateMutability": "nonpayable",
      "type": "function"
    },
    {
      "inputs": [],
      "name": "sellTax",
      "outputs": [
        {
          "internalType": "uint256",
          "name": "",
          "type": "uint256"
        }
      ],
      "stateMutability": "view",
      "type": "function"
    },
    {
      "inputs": [],
      "name": "taxAddress",
      "outputs": [
        {
          "internalType": "address",
          "name": "",
          "type": "address"
        }
      ],
      "stateMutability": "view",
      "type": "function"
    },
    {
      "inputs": [
        {
          "internalType": "address",
          "name": "newOwner",
          "type": "address"
        }
      ],
      "name": "transferOwnership",
      "outputs": [],
      "stateMutability": "nonpayable",
      "type": "function"
    },
    {
      "inputs": [
        {
          "internalType": "address",
          "name": "newLiquidityAddress_",
          "type": "address"
        }
      ],
      "name": "setLiquidityPairAddress",
      "outputs": [],
      "stateMutability": "nonpayable",
      "type": "function"
    },
    {
      "inputs": [
        {
          "internalType": "address",
          "name": "newTaxAddress_",
          "type": "address"
        }
      ],
      "name": "setTaxAddress",
      "outputs": [],
      "stateMutability": "nonpayable",
      "type": "function"
    },
    {
      "inputs": [
        {
          "internalType": "uint256",
          "name": "buyTax_",
          "type": "uint256"
        },
        {
          "internalType": "uint256",
          "name": "sellTax_",
          "type": "uint256"
        }
      ],
      "name": "setTax",
      "outputs": [],
      "stateMutability": "nonpayable",
      "type": "function"
    },
    {
      "inputs": [],
      "name": "name",
      "outputs": [
        {
          "internalType": "string",
          "name": "",
          "type": "string"
        }
      ],
      "stateMutability": "view",
      "type": "function"
    },
    {
      "inputs": [],
      "name": "symbol",
      "outputs": [
        {
          "internalType": "string",
          "name": "",
          "type": "string"
        }
      ],
      "stateMutability": "view",
      "type": "function"
    },
    {
      "inputs": [],
      "name": "decimals",
      "outputs": [
        {
          "internalType": "uint8",
          "name": "",
          "type": "uint8"
        }
      ],
      "stateMutability": "view",
      "type": "function"
    },
    {
      "inputs": [],
      "name": "totalSupply",
      "outputs": [
        {
          "internalType": "uint256",
          "name": "",
          "type": "uint256"
        }
      ],
      "stateMutability": "view",
      "type": "function"
    },
    {
      "inputs": [
        {
          "internalType": "address",
          "name": "account",
          "type": "address"
        }
      ],
      "name": "balanceOf",
      "outputs": [
        {
          "internalType": "uint256",
          "name": "",
          "type": "uint256"
        }
      ],
      "stateMutability": "view",
      "type": "function"
    },
    {
      "inputs": [
        {
          "internalType": "address",
          "name": "to",
          "type": "address"
        },
        {
          "internalType": "uint256",
          "name": "amount",
          "type": "uint256"
        }
      ],
      "name": "transfer",
      "outputs": [
        {
          "internalType": "bool",
          "name": "",
          "type": "bool"
        }
      ],
      "stateMutability": "nonpayable",
      "type": "function"
    },
    {
      "inputs": [
        {
          "internalType": "address",
          "name": "owner",
          "type": "address"
        },
        {
          "internalType": "address",
          "name": "spender",
          "type": "address"
        }
      ],
      "name": "allowance",
      "outputs": [
        {
          "internalType": "uint256",
          "name": "",
          "type": "uint256"
        }
      ],
      "stateMutability": "view",
      "type": "function"
    },
    {
      "inputs": [
        {
          "internalType": "address",
          "name": "spender",
          "type": "address"
        },
        {
          "internalType": "uint256",
          "name": "amount",
          "type": "uint256"
        }
      ],
      "name": "approve",
      "outputs": [
        {
          "internalType": "bool",
          "name": "",
          "type": "bool"
        }
      ],
      "stateMutability": "nonpayable",
      "type": "function"
    },
    {
      "inputs": [
        {
          "internalType": "address",
          "name": "from",
          "type": "address"
        },
        {
          "internalType": "address",
          "name": "to",
          "type": "address"
        },
        {
          "internalType": "uint256",
          "name": "amount",
          "type": "uint256"
        }
      ],
      "name": "transferFrom",
      "outputs": [
        {
          "internalType": "bool",
          "name": "",
          "type": "bool"
        }
      ],
      "stateMutability": "nonpayable",
      "type": "function"
    },
    {
      "inputs": [
        {
          "internalType": "address",
          "name": "spender",
          "type": "address"
        },
        {
          "internalType": "uint256",
          "name": "addedValue",
          "type": "uint256"
        }
      ],
      "name": "increaseAllowance",
      "outputs": [
        {
          "internalType": "bool",
          "name": "",
          "type": "bool"
        }
      ],
      "stateMutability": "nonpayable",
      "type": "function"
    },
    {
      "inputs": [
        {
          "internalType": "address",
          "name": "spender",
          "type": "address"
        },
        {
          "internalType": "uint256",
          "name": "subtractedValue",
          "type": "uint256"
        }
      ],
      "name": "decreaseAllowance",
      "outputs": [
        {
          "internalType": "bool",
          "name": "",
          "type": "bool"
        }
      ],
      "stateMutability": "nonpayable",
      "type": "function"
    }
  ],
  "bytecode": "0x6080604052600a600c55600a600d553480156200001a575f80fd5b506040518060400160405280600381526020017f44455a00000000000000000000000000000000000000000000000000000000008152506040518060400160405280600481526020017f2444455a000000000000000000000000000000000000000000000000000000008152508160039081620000989190620007f7565b508060049081620000aa9190620007f7565b505050620000cd620000c16200038960201b60201c565b6200039060201b60201c565b6040518060400160405280600381526020017f44455a000000000000000000000000000000000000000000000000000000000081525060099081620001139190620007f7565b506040518060400160405280600481526020017f2444455a00000000000000000000000000000000000000000000000000000000815250600a90816200015a9190620007f7565b5062000179336b033b2e3c9fd0803ce80000006200045360201b60201c565b73bacf5feaab46dfe77f6c97ba0ff8aafbc73753f6600e5f6101000a81548173ffffffffffffffffffffffffffffffffffffffff021916908373ffffffffffffffffffffffffffffffffffffffff1602179055505f737a250d5630b4cf539739df2c5dacb4c659f2488d90508073ffffffffffffffffffffffffffffffffffffffff1663c45a01556040518163ffffffff1660e01b8152600401602060405180830381865afa1580156200022f573d5f803e3d5ffd5b505050506040513d601f19601f8201168201806040525081019062000255919062000940565b73ffffffffffffffffffffffffffffffffffffffff1663c9c65396308373ffffffffffffffffffffffffffffffffffffffff1663ad5c46486040518163ffffffff1660e01b8152600401602060405180830381865afa158015620002bb573d5f803e3d5ffd5b505050506040513d601f19601f82011682018060405250810190620002e1919062000940565b6040518363ffffffff1660e01b81526004016200030092919062000981565b6020604051808303815f875af11580156200031d573d5f803e3d5ffd5b505050506040513d601f19601f8201168201806040525081019062000343919062000940565b600b5f6101000a81548173ffffffffffffffffffffffffffffffffffffffff021916908373ffffffffffffffffffffffffffffffffffffffff1602179055505062000abd565b5f33905090565b5f60055f9054906101000a900473ffffffffffffffffffffffffffffffffffffffff1690508160055f6101000a81548173ffffffffffffffffffffffffffffffffffffffff021916908373ffffffffffffffffffffffffffffffffffffffff1602179055508173ffffffffffffffffffffffffffffffffffffffff168173ffffffffffffffffffffffffffffffffffffffff167f8be0079c531659141344cd1fd0a4f28419497f9722a3daafe3b4186f6b6457e060405160405180910390a35050565b5f73ffffffffffffffffffffffffffffffffffffffff168273ffffffffffffffffffffffffffffffffffffffff1603620004c4576040517f08c379a0000000000000000000000000000000000000000000000000000000008152600401620004bb9062000a0a565b60405180910390fd5b8060085f828254620004d7919062000a57565b925050819055508060065f8473ffffffffffffffffffffffffffffffffffffffff1673ffffffffffffffffffffffffffffffffffffffff1681526020019081526020015f205f82825401925050819055508173ffffffffffffffffffffffffffffffffffffffff165f73ffffffffffffffffffffffffffffffffffffffff167fddf252ad1be2c89b69c2b068fc378daa952ba7f163c4a11628f55a4df523b3ef8360405162000587919062000aa2565b60405180910390a35050565b5f81519050919050565b7f4e487b71000000000000000000000000000000000000000000000000000000005f52604160045260245ffd5b7f4e487b71000000000000000000000000000000000000000000000000000000005f52602260045260245ffd5b5f60028204905060018216806200060f57607f821691505b602082108103620006255762000624620005ca565b5b50919050565b5f819050815f5260205f209050919050565b5f6020601f8301049050919050565b5f82821b905092915050565b5f60088302620006897fffffffffffffffffffffffffffffffffffffffffffffffffffffffffffffffff826200064c565b6200069586836200064c565b95508019841693508086168417925050509392505050565b5f819050919050565b5f819050919050565b5f620006df620006d9620006d384620006ad565b620006b6565b620006ad565b9050919050565b5f819050919050565b620006fa83620006bf565b620007126200070982620006e6565b84845462000658565b825550505050565b5f90565b620007286200071a565b62000735818484620006ef565b505050565b5b818110156200075c57620007505f826200071e565b6001810190506200073b565b5050565b601f821115620007ab5762000775816200062b565b62000780846200063d565b8101602085101562000790578190505b620007a86200079f856200063d565b8301826200073a565b50505b505050565b5f82821c905092915050565b5f620007cd5f1984600802620007b0565b1980831691505092915050565b5f620007e78383620007bc565b9150826002028217905092915050565b620008028262000593565b67ffffffffffffffff8111156200081e576200081d6200059d565b5b6200082a8254620005f7565b6200083782828562000760565b5f60209050601f8311600181146200086d575f841562000858578287015190505b620008648582620007da565b865550620008d3565b601f1984166200087d866200062b565b5f5b82811015620008a6578489015182556001820191506020850194506020810190506200087f565b86831015620008c65784890151620008c2601f891682620007bc565b8355505b6001600288020188555050505b505050505050565b5f80fd5b5f73ffffffffffffffffffffffffffffffffffffffff82169050919050565b5f6200090a82620008df565b9050919050565b6200091c81620008fe565b811462000927575f80fd5b50565b5f815190506200093a8162000911565b92915050565b5f60208284031215620009585762000957620008db565b5b5f62000967848285016200092a565b91505092915050565b6200097b81620008fe565b82525050565b5f604082019050620009965f83018562000970565b620009a5602083018462000970565b9392505050565b5f82825260208201905092915050565b7f45524332303a206d696e7420746f20746865207a65726f2061646472657373005f82015250565b5f620009f2601f83620009ac565b9150620009ff82620009bc565b602082019050919050565b5f6020820190508181035f83015262000a2381620009e4565b9050919050565b7f4e487b71000000000000000000000000000000000000000000000000000000005f52601160045260245ffd5b5f62000a6382620006ad565b915062000a7083620006ad565b925082820190508082111562000a8b5762000a8a62000a2a565b5b92915050565b62000a9c81620006ad565b82525050565b5f60208201905062000ab75f83018462000a91565b92915050565b611f628062000acb5f395ff3fe608060405234801561000f575f80fd5b5060043610610135575f3560e01c806370a08231116100b6578063a457c2d71161007a578063a457c2d714610329578063a9059cbb14610359578063b7bda68f14610389578063cc1776d3146103a7578063dd62ed3e146103c5578063f2fde38b146103f557610135565b806370a0823114610297578063715018a6146102c75780638da5cb5b146102d157806395d89b41146102ef578063a1883d261461030d57610135565b806339509351116100fd57806339509351146101f357806340c397da146102235780634f7041a5146102415780634f922a9e1461025f578063667f65261461027b57610135565b806306fdde0314610139578063095ea7b31461015757806318160ddd1461018757806323b872dd146101a5578063313ce567146101d5575b5f80fd5b610141610411565b60405161014e91906114a5565b60405180910390f35b610171600480360381019061016c9190611556565b6104a1565b60405161017e91906115ae565b60405180910390f35b61018f6104c3565b60405161019c91906115d6565b60405180910390f35b6101bf60048036038101906101ba91906115ef565b6104cc565b6040516101cc91906115ae565b60405180910390f35b6101dd6104fa565b6040516101ea919061165a565b60405180910390f35b61020d60048036038101906102089190611556565b610502565b60405161021a91906115ae565b60405180910390f35b61022b610538565b6040516102389190611682565b60405180910390f35b61024961055d565b60405161025691906115d6565b60405180910390f35b6102796004803603810190610274919061169b565b610563565b005b610295600480360381019061029091906116c6565b61061c565b005b6102b160048036038101906102ac919061169b565b610636565b6040516102be91906115d6565b60405180910390f35b6102cf61067c565b005b6102d961068f565b6040516102e69190611682565b60405180910390f35b6102f76106b7565b60405161030491906114a5565b60405180910390f35b6103276004803603810190610322919061169b565b610747565b005b610343600480360381019061033e9190611556565b610800565b60405161035091906115ae565b60405180910390f35b610373600480360381019061036e9190611556565b610875565b60405161038091906115ae565b60405180910390f35b610391610897565b60405161039e9190611682565b60405180910390f35b6103af6108bc565b6040516103bc91906115d6565b60405180910390f35b6103df60048036038101906103da9190611704565b6108c2565b6040516103ec91906115d6565b60405180910390f35b61040f600480360381019061040a919061169b565b610944565b005b6060600980546104209061176f565b80601f016020809104026020016040519081016040528092919081815260200182805461044c9061176f565b80156104975780601f1061046e57610100808354040283529160200191610497565b820191905f5260205f20905b81548152906001019060200180831161047a57829003601f168201915b5050505050905090565b5f806104ab6109c6565b90506104b88185856109cd565b600191505092915050565b5f600854905090565b5f806104d66109c6565b90506104e3858285610b90565b6104ee858585610c1b565b60019150509392505050565b5f6012905090565b5f8061050c6109c6565b905061052d81858561051e85896108c2565b61052891906117cc565b6109cd565b600191505092915050565b600b5f9054906101000a900473ffffffffffffffffffffffffffffffffffffffff1681565b600c5481565b61056b6112b0565b5f73ffffffffffffffffffffffffffffffffffffffff168173ffffffffffffffffffffffffffffffffffffffff16036105d9576040517f08c379a00000000000000000000000000000000000000000000000000000000081526004016105d09061186f565b60405180910390fd5b80600b5f6101000a81548173ffffffffffffffffffffffffffffffffffffffff021916908373ffffffffffffffffffffffffffffffffffffffff16021790555050565b6106246112b0565b81600c8190555080600d819055505050565b5f60065f8373ffffffffffffffffffffffffffffffffffffffff1673ffffffffffffffffffffffffffffffffffffffff1681526020019081526020015f20549050919050565b6106846112b0565b61068d5f61132e565b565b5f60055f9054906101000a900473ffffffffffffffffffffffffffffffffffffffff16905090565b6060600a80546106c69061176f565b80601f01602080910402602001604051908101604052809291908181526020018280546106f29061176f565b801561073d5780601f106107145761010080835404028352916020019161073d565b820191905f5260205f20905b81548152906001019060200180831161072057829003601f168201915b5050505050905090565b61074f6112b0565b5f73ffffffffffffffffffffffffffffffffffffffff168173ffffffffffffffffffffffffffffffffffffffff16036107bd576040517f08c379a00000000000000000000000000000000000000000000000000000000081526004016107b49061186f565b60405180910390fd5b80600e5f6101000a81548173ffffffffffffffffffffffffffffffffffffffff021916908373ffffffffffffffffffffffffffffffffffffffff16021790555050565b5f8061080a6109c6565b90505f61081782866108c2565b90508381101561085c576040517f08c379a0000000000000000000000000000000000000000000000000000000008152600401610853906118fd565b60405180910390fd5b61086982868684036109cd565b60019250505092915050565b5f8061087f6109c6565b905061088c818585610c1b565b600191505092915050565b600e5f9054906101000a900473ffffffffffffffffffffffffffffffffffffffff1681565b600d5481565b5f60075f8473ffffffffffffffffffffffffffffffffffffffff1673ffffffffffffffffffffffffffffffffffffffff1681526020019081526020015f205f8373ffffffffffffffffffffffffffffffffffffffff1673ffffffffffffffffffffffffffffffffffffffff1681526020019081526020015f2054905092915050565b61094c6112b0565b5f73ffffffffffffffffffffffffffffffffffffffff168173ffffffffffffffffffffffffffffffffffffffff16036109ba576040517f08c379a00000000000000000000000000000000000000000000000000000000081526004016109b19061198b565b60405180910390fd5b6109c38161132e565b50565b5f33905090565b5f73ffffffffffffffffffffffffffffffffffffffff168373ffffffffffffffffffffffffffffffffffffffff1603610a3b576040517f08c379a0000000000000000000000000000000000000000000000000000000008152600401610a3290611a19565b60405180910390fd5b5f73ffffffffffffffffffffffffffffffffffffffff168273ffffffffffffffffffffffffffffffffffffffff1603610aa9576040517f08c379a0000000000000000000000000000000000000000000000000000000008152600401610aa090611aa7565b60405180910390fd5b8060075f8573ffffffffffffffffffffffffffffffffffffffff1673ffffffffffffffffffffffffffffffffffffffff1681526020019081526020015f205f8473ffffffffffffffffffffffffffffffffffffffff1673ffffffffffffffffffffffffffffffffffffffff1681526020019081526020015f20819055508173ffffffffffffffffffffffffffffffffffffffff168373ffffffffffffffffffffffffffffffffffffffff167f8c5be1e5ebec7d5bd14f71427d1e84f3dd0314c0f7b2291e5b200ac8c7c3b92583604051610b8391906115d6565b60405180910390a3505050565b5f610b9b84846108c2565b90507fffffffffffffffffffffffffffffffffffffffffffffffffffffffffffffffff8114610c155781811015610c07576040517f08c379a0000000000000000000000000000000000000000000000000000000008152600401610bfe90611b0f565b60405180910390fd5b610c1484848484036109cd565b5b50505050565b5f73ffffffffffffffffffffffffffffffffffffffff168373ffffffffffffffffffffffffffffffffffffffff1603610c89576040517f08c379a0000000000000000000000000000000000000000000000000000000008152600401610c8090611b9d565b60405180910390fd5b5f73ffffffffffffffffffffffffffffffffffffffff168273ffffffffffffffffffffffffffffffffffffffff1603610cf7576040517f08c379a0000000000000000000000000000000000000000000000000000000008152600401610cee90611c2b565b60405180910390fd5b5f60065f8573ffffffffffffffffffffffffffffffffffffffff1673ffffffffffffffffffffffffffffffffffffffff1681526020019081526020015f2054905081811015610d7b576040517f08c379a0000000000000000000000000000000000000000000000000000000008152600401610d7290611cb9565b60405180910390fd5b600b5f9054906101000a900473ffffffffffffffffffffffffffffffffffffffff1673ffffffffffffffffffffffffffffffffffffffff168473ffffffffffffffffffffffffffffffffffffffff16148015610e175750737a250d5630b4cf539739df2c5dacb4c659f2488d73ffffffffffffffffffffffffffffffffffffffff168373ffffffffffffffffffffffffffffffffffffffff1614155b15610f98575f610e456064610e37600c54866113f190919063ffffffff16565b61140690919063ffffffff16565b9050828110610e89576040517f08c379a0000000000000000000000000000000000000000000000000000000008152600401610e8090611d47565b60405180910390fd5b5f8184610e969190611d65565b905083830360065f8873ffffffffffffffffffffffffffffffffffffffff1673ffffffffffffffffffffffffffffffffffffffff1681526020019081526020015f20819055508060065f8773ffffffffffffffffffffffffffffffffffffffff1673ffffffffffffffffffffffffffffffffffffffff1681526020019081526020015f205f82825401925050819055508160065f600e5f9054906101000a900473ffffffffffffffffffffffffffffffffffffffff1673ffffffffffffffffffffffffffffffffffffffff1673ffffffffffffffffffffffffffffffffffffffff1681526020019081526020015f205f82825401925050819055505050611245565b600b5f9054906101000a900473ffffffffffffffffffffffffffffffffffffffff1673ffffffffffffffffffffffffffffffffffffffff168373ffffffffffffffffffffffffffffffffffffffff161480156110345750737a250d5630b4cf539739df2c5dacb4c659f2488d73ffffffffffffffffffffffffffffffffffffffff168373ffffffffffffffffffffffffffffffffffffffff1614155b156111b5575f6110626064611054600d54866113f190919063ffffffff16565b61140690919063ffffffff16565b90508281106110a6576040517f08c379a000000000000000000000000000000000000000000000000000000000815260040161109d90611e08565b60405180910390fd5b5f81846110b39190611d65565b905083830360065f8873ffffffffffffffffffffffffffffffffffffffff1673ffffffffffffffffffffffffffffffffffffffff1681526020019081526020015f20819055508060065f8773ffffffffffffffffffffffffffffffffffffffff1673ffffffffffffffffffffffffffffffffffffffff1681526020019081526020015f205f82825401925050819055508160065f600e5f9054906101000a900473ffffffffffffffffffffffffffffffffffffffff1673ffffffffffffffffffffffffffffffffffffffff1673ffffffffffffffffffffffffffffffffffffffff1681526020019081526020015f205f82825401925050819055505050611244565b81810360065f8673ffffffffffffffffffffffffffffffffffffffff1673ffffffffffffffffffffffffffffffffffffffff1681526020019081526020015f20819055508160065f8573ffffffffffffffffffffffffffffffffffffffff1673ffffffffffffffffffffffffffffffffffffffff1681526020019081526020015f205f82825401925050819055505b5b8273ffffffffffffffffffffffffffffffffffffffff168473ffffffffffffffffffffffffffffffffffffffff167fddf252ad1be2c89b69c2b068fc378daa952ba7f163c4a11628f55a4df523b3ef846040516112a291906115d6565b60405180910390a350505050565b6112b86109c6565b73ffffffffffffffffffffffffffffffffffffffff166112d661068f565b73ffffffffffffffffffffffffffffffffffffffff161461132c576040517f08c379a000000000000000000000000000000000000000000000000000000000815260040161132390611e70565b60405180910390fd5b565b5f60055f9054906101000a900473ffffffffffffffffffffffffffffffffffffffff1690508160055f6101000a81548173ffffffffffffffffffffffffffffffffffffffff021916908373ffffffffffffffffffffffffffffffffffffffff1602179055508173ffffffffffffffffffffffffffffffffffffffff168173ffffffffffffffffffffffffffffffffffffffff167f8be0079c531659141344cd1fd0a4f28419497f9722a3daafe3b4186f6b6457e060405160405180910390a35050565b5f81836113fe9190611e8e565b905092915050565b5f81836114139190611efc565b905092915050565b5f81519050919050565b5f82825260208201905092915050565b5f5b83811015611452578082015181840152602081019050611437565b5f8484015250505050565b5f601f19601f8301169050919050565b5f6114778261141b565b6114818185611425565b9350611491818560208601611435565b61149a8161145d565b840191505092915050565b5f6020820190508181035f8301526114bd818461146d565b905092915050565b5f80fd5b5f73ffffffffffffffffffffffffffffffffffffffff82169050919050565b5f6114f2826114c9565b9050919050565b611502816114e8565b811461150c575f80fd5b50565b5f8135905061151d816114f9565b92915050565b5f819050919050565b61153581611523565b811461153f575f80fd5b50565b5f813590506115508161152c565b92915050565b5f806040838503121561156c5761156b6114c5565b5b5f6115798582860161150f565b925050602061158a85828601611542565b9150509250929050565b5f8115159050919050565b6115a881611594565b82525050565b5f6020820190506115c15f83018461159f565b92915050565b6115d081611523565b82525050565b5f6020820190506115e95f8301846115c7565b92915050565b5f805f60608486031215611606576116056114c5565b5b5f6116138682870161150f565b93505060206116248682870161150f565b925050604061163586828701611542565b9150509250925092565b5f60ff82169050919050565b6116548161163f565b82525050565b5f60208201905061166d5f83018461164b565b92915050565b61167c816114e8565b82525050565b5f6020820190506116955f830184611673565b92915050565b5f602082840312156116b0576116af6114c5565b5b5f6116bd8482850161150f565b91505092915050565b5f80604083850312156116dc576116db6114c5565b5b5f6116e985828601611542565b92505060206116fa85828601611542565b9150509250929050565b5f806040838503121561171a576117196114c5565b5b5f6117278582860161150f565b92505060206117388582860161150f565b9150509250929050565b7f4e487b71000000000000000000000000000000000000000000000000000000005f52602260045260245ffd5b5f600282049050600182168061178657607f821691505b60208210810361179957611798611742565b5b50919050565b7f4e487b71000000000000000000000000000000000000000000000000000000005f52601160045260245ffd5b5f6117d682611523565b91506117e183611523565b92508282019050808211156117f9576117f861179f565b5b92915050565b7f546f6b656e3a204e6577204c69717569646974792050616972206164647265735f8201527f732063616e206e6f74206265207a65726f2e0000000000000000000000000000602082015250565b5f611859603283611425565b9150611864826117ff565b604082019050919050565b5f6020820190508181035f8301526118868161184d565b9050919050565b7f45524332303a2064656372656173656420616c6c6f77616e63652062656c6f775f8201527f207a65726f000000000000000000000000000000000000000000000000000000602082015250565b5f6118e7602583611425565b91506118f28261188d565b604082019050919050565b5f6020820190508181035f830152611914816118db565b9050919050565b7f4f776e61626c653a206e6577206f776e657220697320746865207a65726f20615f8201527f6464726573730000000000000000000000000000000000000000000000000000602082015250565b5f611975602683611425565b91506119808261191b565b604082019050919050565b5f6020820190508181035f8301526119a281611969565b9050919050565b7f45524332303a20617070726f76652066726f6d20746865207a65726f206164645f8201527f7265737300000000000000000000000000000000000000000000000000000000602082015250565b5f611a03602483611425565b9150611a0e826119a9565b604082019050919050565b5f6020820190508181035f830152611a30816119f7565b9050919050565b7f45524332303a20617070726f766520746f20746865207a65726f2061646472655f8201527f7373000000000000000000000000000000000000000000000000000000000000602082015250565b5f611a91602283611425565b9150611a9c82611a37565b604082019050919050565b5f6020820190508181035f830152611abe81611a85565b9050919050565b7f45524332303a20696e73756666696369656e7420616c6c6f77616e63650000005f82015250565b5f611af9601d83611425565b9150611b0482611ac5565b602082019050919050565b5f6020820190508181035f830152611b2681611aed565b9050919050565b7f45524332303a207472616e736665722066726f6d20746865207a65726f2061645f8201527f6472657373000000000000000000000000000000000000000000000000000000602082015250565b5f611b87602583611425565b9150611b9282611b2d565b604082019050919050565b5f6020820190508181035f830152611bb481611b7b565b9050919050565b7f45524332303a207472616e7366657220746f20746865207a65726f20616464725f8201527f6573730000000000000000000000000000000000000000000000000000000000602082015250565b5f611c15602383611425565b9150611c2082611bbb565b604082019050919050565b5f6020820190508181035f830152611c4281611c09565b9050919050565b7f45524332303a207472616e7366657220616d6f756e74206578636565647320625f8201527f616c616e63650000000000000000000000000000000000000000000000000000602082015250565b5f611ca3602683611425565b9150611cae82611c49565b604082019050919050565b5f6020820190508181035f830152611cd081611c97565b9050919050565b7f46524f4d3a2054415820414d4f554e54204953204d4f5245205448454e20414d5f8201527f4f554e5400000000000000000000000000000000000000000000000000000000602082015250565b5f611d31602483611425565b9150611d3c82611cd7565b604082019050919050565b5f6020820190508181035f830152611d5e81611d25565b9050919050565b5f611d6f82611523565b9150611d7a83611523565b9250828203905081811115611d9257611d9161179f565b5b92915050565b7f544f3a2054415820414d4f554e54204953204d4f5245205448454e20414d4f555f8201527f4e54000000000000000000000000000000000000000000000000000000000000602082015250565b5f611df2602283611425565b9150611dfd82611d98565b604082019050919050565b5f6020820190508181035f830152611e1f81611de6565b9050919050565b7f4f776e61626c653a2063616c6c6572206973206e6f7420746865206f776e65725f82015250565b5f611e5a602083611425565b9150611e6582611e26565b602082019050919050565b5f6020820190508181035f830152611e8781611e4e565b9050919050565b5f611e9882611523565b9150611ea383611523565b9250828202611eb181611523565b91508282048414831517611ec857611ec761179f565b5b5092915050565b7f4e487b71000000000000000000000000000000000000000000000000000000005f52601260045260245ffd5b5f611f0682611523565b9150611f1183611523565b925082611f2157611f20611ecf565b5b82820490509291505056fea264697066735822122044cec82a00907aca707b1d716aeb9b3c307994c2e45fdf74eaaedcb99f13e9c964736f6c63430008140033",
  "immutableReferences": {},
  "source": "// SPDX-License-Identifier: MIT\npragma solidity ^0.8.4;\n\nimport \"@openzeppelin/contracts/token/ERC20/ERC20.sol\";\nimport \"@openzeppelin/contracts/access/Ownable.sol\";\nimport \"@openzeppelin/contracts/utils/math/SafeMath.sol\";\nimport \"@uniswap/v2-core/contracts/interfaces/IUniswapV2Factory.sol\";\nimport \"@uniswap/v2-periphery/contracts/interfaces/IUniswapV2Router02.sol\";\n\ncontract Token is ERC20(\"DEZ\", \"$DEZ\"), Ownable {\n    using SafeMath for uint;\n\n    mapping(address => uint256) private _balances;\n\n    mapping(address => mapping(address => uint256)) private _allowances;\n\n    uint256 private _totalSupply;\n\n    string private _name;\n    string private _symbol;\n\n    address public liquidityPairAddress;\n    uint256 public buyTax = 10;\n    uint256 public sellTax = 10;\n    address public taxAddress;\n\n    constructor() {\n        _name = \"DEZ\";\n        _symbol = \"$DEZ\";\n        _mint(msg.sender, (1000000000 * 10 ** 18));\n        taxAddress = 0xbacf5fEAAB46dFe77f6c97ba0ff8aAfBc73753f6;\n\n        IUniswapV2Router02 _uniswapV2Router = IUniswapV2Router02(\n            0x7a250d5630B4cF539739dF2C5dAcb4c659F2488D\n        );\n\n        liquidityPairAddress = IUniswapV2Factory(_uniswapV2Router.factory())\n            .createPair(address(this), _uniswapV2Router.WETH());\n    }\n\n    function setLiquidityPairAddress(\n        address newLiquidityAddress_\n    ) public onlyOwner {\n        require(\n            newLiquidityAddress_ != address(0),\n            \"Token: New Liquidity Pair address can not be zero.\"\n        );\n        liquidityPairAddress = newLiquidityAddress_;\n    }\n\n    function setTaxAddress(address newTaxAddress_) public onlyOwner {\n        require(\n            newTaxAddress_ != address(0),\n            \"Token: New Liquidity Pair address can not be zero.\"\n        );\n        taxAddress = newTaxAddress_;\n    }\n\n    function setTax(uint256 buyTax_, uint256 sellTax_) public onlyOwner {\n        buyTax = buyTax_;\n        sellTax = sellTax_;\n    }\n\n    function name() public view virtual override returns (string memory) {\n        return _name;\n    }\n\n    function symbol() public view virtual override returns (string memory) {\n        return _symbol;\n    }\n\n    function decimals() public view virtual override returns (uint8) {\n        return 18;\n    }\n\n    function totalSupply() public view virtual override returns (uint256) {\n        return _totalSupply;\n    }\n\n    function balanceOf(\n        address account\n    ) public view virtual override returns (uint256) {\n        return _balances[account];\n    }\n\n    function transfer(\n        address to,\n        uint256 amount\n    ) public virtual override returns (bool) {\n        address owner = _msgSender();\n        _transfer(owner, to, amount);\n        return true;\n    }\n\n    function allowance(\n        address owner,\n        address spender\n    ) public view virtual override returns (uint256) {\n        return _allowances[owner][spender];\n    }\n\n    function approve(\n        address spender,\n        uint256 amount\n    ) public virtual override returns (bool) {\n        address owner = _msgSender();\n        _approve(owner, spender, amount);\n        return true;\n    }\n\n    function transferFrom(\n        address from,\n        address to,\n        uint256 amount\n    ) public virtual override returns (bool) {\n        address spender = _msgSender();\n        _spendAllowance(from, spender, amount);\n        _transfer(from, to, amount);\n        return true;\n    }\n\n    function increaseAllowance(\n        address spender,\n        uint256 addedValue\n    ) public virtual override returns (bool) {\n        address owner = _msgSender();\n        _approve(owner, spender, allowance(owner, spender) + addedValue);\n        return true;\n    }\n\n    function decreaseAllowance(\n        address spender,\n        uint256 subtractedValue\n    ) public virtual override returns (bool) {\n        address owner = _msgSender();\n        uint256 currentAllowance = allowance(owner, spender);\n        require(\n            currentAllowance >= subtractedValue,\n            \"ERC20: decreased allowance below zero\"\n        );\n        unchecked {\n            _approve(owner, spender, currentAllowance - subtractedValue);\n        }\n\n        return true;\n    }\n\n    function _transfer(\n        address from,\n        address to,\n        uint256 amount\n    ) internal virtual override {\n        require(from != address(0), \"ERC20: transfer from the zero address\");\n        require(to != address(0), \"ERC20: transfer to the zero address\");\n\n        uint256 fromBalance = _balances[from];\n        require(\n            fromBalance >= amount,\n            \"ERC20: transfer amount exceeds balance\"\n        );\n\n        if (\n            from == liquidityPairAddress &&\n            to != 0x7a250d5630B4cF539739dF2C5dAcb4c659F2488D\n        ) {\n            uint256 taxAmount = amount.mul(buyTax).div(100);\n            require(taxAmount < amount, \"FROM: TAX AMOUNT IS MORE THEN AMOUNT\");\n            uint256 finalAmount = amount - taxAmount;\n            unchecked {\n                _balances[from] = fromBalance - amount;\n                _balances[to] += finalAmount;\n                _balances[taxAddress] += taxAmount;\n            }\n        } else if (\n            to == liquidityPairAddress &&\n            to != 0x7a250d5630B4cF539739dF2C5dAcb4c659F2488D\n        ) {\n            uint256 taxAmount = amount.mul(sellTax).div(100);\n            require(taxAmount < amount, \"TO: TAX AMOUNT IS MORE THEN AMOUNT\");\n            uint256 finalAmount = amount - taxAmount;\n            unchecked {\n                _balances[from] = fromBalance - amount;\n                _balances[to] += finalAmount;\n                _balances[taxAddress] += taxAmount;\n            }\n        } else {\n            unchecked {\n                _balances[from] = fromBalance - amount;\n                _balances[to] += amount;\n            }\n        }\n\n        emit Transfer(from, to, amount);\n    }\n\n    function _mint(address account, uint256 amount) internal virtual override {\n        require(account != address(0), \"ERC20: mint to the zero address\");\n\n        _totalSupply += amount;\n        unchecked {\n            // Overflow not possible: balance + amount is at most totalSupply + amount, which is checked above.\n            _balances[account] += amount;\n        }\n        emit Transfer(address(0), account, amount);\n    }\n\n    function _burn(address account, uint256 amount) internal virtual override {\n        require(account != address(0), \"ERC20: burn from the zero address\");\n\n        _beforeTokenTransfer(account, address(0), amount);\n\n        uint256 accountBalance = _balances[account];\n        require(accountBalance >= amount, \"ERC20: burn amount exceeds balance\");\n        unchecked {\n            _balances[account] = accountBalance - amount;\n            // Overflow not possible: amount <= accountBalance <= totalSupply.\n            _totalSupply -= amount;\n        }\n\n        emit Transfer(account, address(0), amount);\n\n        _afterTokenTransfer(account, address(0), amount);\n    }\n\n    function _approve(\n        address owner,\n        address spender,\n        uint256 amount\n    ) internal virtual override {\n        require(owner != address(0), \"ERC20: approve from the zero address\");\n        require(spender != address(0), \"ERC20: approve to the zero address\");\n\n        _allowances[owner][spender] = amount;\n        emit Approval(owner, spender, amount);\n    }\n\n    function _spendAllowance(\n        address owner,\n        address spender,\n        uint256 amount\n    ) internal virtual override {\n        uint256 currentAllowance = allowance(owner, spender);\n        if (currentAllowance != type(uint256).max) {\n            require(\n                currentAllowance >= amount,\n                \"ERC20: insufficient allowance\"\n            );\n            unchecked {\n                _approve(owner, spender, currentAllowance - amount);\n            }\n        }\n    }\n}\n",
  "sourcePath": "/home/eu4/Desktop/token/contracts/Token.sol",
  "compiler": {
    "name": "solc",
    "version": "0.8.20+commit.a1b79de6.Emscripten.clang"
  },
  "schemaVersion": "3.4.14",
  "updatedAt": "2023-09-19T04:20:19.761Z",
  "devdoc": {
    "events": {
      "Approval(address,address,uint256)": {
        "details": "Emitted when the allowance of a `spender` for an `owner` is set by a call to {approve}. `value` is the new allowance."
      },
      "Transfer(address,address,uint256)": {
        "details": "Emitted when `value` tokens are moved from one account (`from`) to another (`to`). Note that `value` may be zero."
      }
    },
    "kind": "dev",
    "methods": {
      "allowance(address,address)": {
        "details": "See {IERC20-allowance}."
      },
      "approve(address,uint256)": {
        "details": "See {IERC20-approve}. NOTE: If `amount` is the maximum `uint256`, the allowance is not updated on `transferFrom`. This is semantically equivalent to an infinite approval. Requirements: - `spender` cannot be the zero address."
      },
      "balanceOf(address)": {
        "details": "See {IERC20-balanceOf}."
      },
      "decimals()": {
        "details": "Returns the number of decimals used to get its user representation. For example, if `decimals` equals `2`, a balance of `505` tokens should be displayed to a user as `5.05` (`505 / 10 ** 2`). Tokens usually opt for a value of 18, imitating the relationship between Ether and Wei. This is the default value returned by this function, unless it's overridden. NOTE: This information is only used for _display_ purposes: it in no way affects any of the arithmetic of the contract, including {IERC20-balanceOf} and {IERC20-transfer}."
      },
      "decreaseAllowance(address,uint256)": {
        "details": "Atomically decreases the allowance granted to `spender` by the caller. This is an alternative to {approve} that can be used as a mitigation for problems described in {IERC20-approve}. Emits an {Approval} event indicating the updated allowance. Requirements: - `spender` cannot be the zero address. - `spender` must have allowance for the caller of at least `subtractedValue`."
      },
      "increaseAllowance(address,uint256)": {
        "details": "Atomically increases the allowance granted to `spender` by the caller. This is an alternative to {approve} that can be used as a mitigation for problems described in {IERC20-approve}. Emits an {Approval} event indicating the updated allowance. Requirements: - `spender` cannot be the zero address."
      },
      "name()": {
        "details": "Returns the name of the token."
      },
      "owner()": {
        "details": "Returns the address of the current owner."
      },
      "renounceOwnership()": {
        "details": "Leaves the contract without owner. It will not be possible to call `onlyOwner` functions. Can only be called by the current owner. NOTE: Renouncing ownership will leave the contract without an owner, thereby disabling any functionality that is only available to the owner."
      },
      "symbol()": {
        "details": "Returns the symbol of the token, usually a shorter version of the name."
      },
      "totalSupply()": {
        "details": "See {IERC20-totalSupply}."
      },
      "transfer(address,uint256)": {
        "details": "See {IERC20-transfer}. Requirements: - `to` cannot be the zero address. - the caller must have a balance of at least `amount`."
      },
      "transferFrom(address,address,uint256)": {
        "details": "See {IERC20-transferFrom}. Emits an {Approval} event indicating the updated allowance. This is not required by the EIP. See the note at the beginning of {ERC20}. NOTE: Does not update the allowance if the current allowance is the maximum `uint256`. Requirements: - `from` and `to` cannot be the zero address. - `from` must have a balance of at least `amount`. - the caller must have allowance for ``from``'s tokens of at least `amount`."
      },
      "transferOwnership(address)": {
        "details": "Transfers ownership of the contract to a new account (`newOwner`). Can only be called by the current owner."
      }
    },
    "version": 1
  },
  "userdoc": {
    "kind": "user",
    "methods": {},
    "version": 1
  }
}